{
  "contractName": "Appointment",
  "abi": [
    {
      "inputs": [],
      "payable": false,
      "stateMutability": "nonpayable",
      "type": "constructor"
    },
    {
      "anonymous": false,
      "inputs": [
        {
          "indexed": true,
          "name": "appointmentId",
          "type": "string"
        },
        {
          "indexed": false,
          "name": "userAddress",
          "type": "address"
        },
        {
          "indexed": false,
          "name": "clinicAddress",
          "type": "address"
        },
        {
          "indexed": false,
          "name": "index",
          "type": "uint256"
        },
        {
          "indexed": false,
          "name": "doctor",
          "type": "string"
        },
        {
          "indexed": false,
          "name": "date",
          "type": "string"
        },
        {
          "indexed": false,
          "name": "time",
          "type": "string"
        },
        {
          "indexed": false,
          "name": "status",
          "type": "bytes"
        }
      ],
      "name": "LogNewAppointment",
      "type": "event"
    },
    {
      "anonymous": false,
      "inputs": [
        {
          "indexed": true,
          "name": "appointmentId",
          "type": "string"
        },
        {
          "indexed": false,
          "name": "userAddress",
          "type": "address"
        },
        {
          "indexed": false,
          "name": "clinicAddress",
          "type": "address"
        },
        {
          "indexed": false,
          "name": "index",
          "type": "uint256"
        },
        {
          "indexed": false,
          "name": "doctor",
          "type": "string"
        },
        {
          "indexed": false,
          "name": "date",
          "type": "string"
        },
        {
          "indexed": false,
          "name": "time",
          "type": "string"
        },
        {
          "indexed": false,
          "name": "status",
          "type": "bytes"
        }
      ],
      "name": "LogUpdateAppointment",
      "type": "event"
    },
    {
      "constant": true,
      "inputs": [
        {
          "name": "appointmentId",
          "type": "string"
        }
      ],
      "name": "isAppointmentExist",
      "outputs": [
        {
          "name": "isIndeed",
          "type": "bool"
        }
      ],
      "payable": false,
      "stateMutability": "view",
      "type": "function"
    },
    {
      "constant": false,
      "inputs": [
        {
          "name": "appointmentId",
          "type": "string"
        },
        {
          "name": "userAddress",
          "type": "address"
        },
        {
          "name": "clinicAddress",
          "type": "address"
        },
        {
          "name": "doctor",
          "type": "string"
        },
        {
          "name": "date",
          "type": "string"
        },
        {
          "name": "time",
          "type": "string"
        },
        {
          "name": "status",
          "type": "bytes"
        }
      ],
      "name": "insertAppointment",
      "outputs": [
        {
          "name": "index",
          "type": "uint256"
        }
      ],
      "payable": false,
      "stateMutability": "nonpayable",
      "type": "function"
    },
    {
      "constant": true,
      "inputs": [
        {
          "name": "appointmentId",
          "type": "string"
        }
      ],
      "name": "getAppointment",
      "outputs": [
        {
          "name": "userAddress",
          "type": "address"
        },
        {
          "name": "clinicAddress",
          "type": "address"
        },
        {
          "name": "doctor",
          "type": "string"
        },
        {
          "name": "date",
          "type": "string"
        },
        {
          "name": "time",
          "type": "string"
        },
        {
          "name": "index",
          "type": "uint256"
        },
        {
          "name": "status",
          "type": "bytes"
        }
      ],
      "payable": false,
      "stateMutability": "view",
      "type": "function"
    },
    {
      "constant": false,
      "inputs": [
        {
          "name": "appointmentId",
          "type": "string"
        },
        {
          "name": "status",
          "type": "bytes"
        }
      ],
      "name": "updateAppointmentStatus",
      "outputs": [
        {
          "name": "success",
          "type": "bool"
        }
      ],
      "payable": false,
      "stateMutability": "nonpayable",
      "type": "function"
    },
    {
      "constant": false,
      "inputs": [
        {
          "name": "appointmentId",
          "type": "string"
        },
        {
          "name": "date",
          "type": "string"
        },
        {
          "name": "time",
          "type": "string"
        }
      ],
      "name": "updateAppointmentDateTime",
      "outputs": [
        {
          "name": "success",
          "type": "bool"
        }
      ],
      "payable": false,
      "stateMutability": "nonpayable",
      "type": "function"
    },
    {
      "constant": true,
      "inputs": [],
      "name": "getAppointmentCount",
      "outputs": [
        {
          "name": "count",
          "type": "uint256"
        }
      ],
      "payable": false,
      "stateMutability": "view",
      "type": "function"
    },
    {
      "constant": true,
      "inputs": [
        {
          "name": "index",
          "type": "uint256"
        }
      ],
      "name": "getAppointmentAtIndex",
      "outputs": [
        {
          "name": "appointmentId",
          "type": "string"
        }
      ],
      "payable": false,
      "stateMutability": "view",
      "type": "function"
    }
  ],
  "bytecode": "0x608060405234801561001057600080fd5b50612c3a806100206000396000f3fe60806040526004361061007d576000357c01000000000000000000000000000000000000000000000000000000009004806314ea00e51461008257806329e4afbb146101625780632f1ffffc1461018d57806352f9e9ff146103045780635a9f316d1461051257806368715f931461088a578063759daa1a1461093e575b600080fd5b34801561008e57600080fd5b50610148600480360360208110156100a557600080fd5b81019080803590602001906401000000008111156100c257600080fd5b8201836020820111156100d457600080fd5b803590602001918460018302840111640100000000831117156100f657600080fd5b91908080601f016020809104026020016040519081016040528093929190818152602001838380828437600081840152601f19601f820116905080830192505050505050509192919290505050610c30565b604051808215151515815260200191505060405180910390f35b34801561016e57600080fd5b50610177610dc5565b6040518082815260200191505060405180910390f35b34801561019957600080fd5b506102ea600480360360408110156101b057600080fd5b81019080803590602001906401000000008111156101cd57600080fd5b8201836020820111156101df57600080fd5b8035906020019184600183028401116401000000008311171561020157600080fd5b91908080601f016020809104026020016040519081016040528093929190818152602001838380828437600081840152601f19601f8201169050808301925050505050505091929192908035906020019064010000000081111561026457600080fd5b82018360208201111561027657600080fd5b8035906020019184600183028401116401000000008311171561029857600080fd5b91908080601f016020809104026020016040519081016040528093929190818152602001838380828437600081840152601f19601f820116905080830192505050505050509192919290505050610dd2565b604051808215151515815260200191505060405180910390f35b34801561031057600080fd5b506104f86004803603606081101561032757600080fd5b810190808035906020019064010000000081111561034457600080fd5b82018360208201111561035657600080fd5b8035906020019184600183028401116401000000008311171561037857600080fd5b91908080601f016020809104026020016040519081016040528093929190818152602001838380828437600081840152601f19601f820116905080830192505050505050509192919290803590602001906401000000008111156103db57600080fd5b8201836020820111156103ed57600080fd5b8035906020019184600183028401116401000000008311171561040f57600080fd5b91908080601f016020809104026020016040519081016040528093929190818152602001838380828437600081840152601f19601f8201169050808301925050505050505091929192908035906020019064010000000081111561047257600080fd5b82018360208201111561048457600080fd5b803590602001918460018302840111640100000000831117156104a657600080fd5b91908080601f016020809104026020016040519081016040528093929190818152602001838380828437600081840152601f19601f820116905080830192505050505050509192919290505050611453565b604051808215151515815260200191505060405180910390f35b34801561051e57600080fd5b50610874600480360360e081101561053557600080fd5b810190808035906020019064010000000081111561055257600080fd5b82018360208201111561056457600080fd5b8035906020019184600183028401116401000000008311171561058657600080fd5b91908080601f016020809104026020016040519081016040528093929190818152602001838380828437600081840152601f19601f820116905080830192505050505050509192919290803573ffffffffffffffffffffffffffffffffffffffff169060200190929190803573ffffffffffffffffffffffffffffffffffffffff1690602001909291908035906020019064010000000081111561062957600080fd5b82018360208201111561063b57600080fd5b8035906020019184600183028401116401000000008311171561065d57600080fd5b91908080601f016020809104026020016040519081016040528093929190818152602001838380828437600081840152601f19601f820116905080830192505050505050509192919290803590602001906401000000008111156106c057600080fd5b8201836020820111156106d257600080fd5b803590602001918460018302840111640100000000831117156106f457600080fd5b91908080601f016020809104026020016040519081016040528093929190818152602001838380828437600081840152601f19601f8201169050808301925050505050505091929192908035906020019064010000000081111561075757600080fd5b82018360208201111561076957600080fd5b8035906020019184600183028401116401000000008311171561078b57600080fd5b91908080601f016020809104026020016040519081016040528093929190818152602001838380828437600081840152601f19601f820116905080830192505050505050509192919290803590602001906401000000008111156107ee57600080fd5b82018360208201111561080057600080fd5b8035906020019184600183028401116401000000008311171561082257600080fd5b91908080601f016020809104026020016040519081016040528093929190818152602001838380828437600081840152601f19601f820116905080830192505050505050509192919290505050611ace565b6040518082815260200191505060405180910390f35b34801561089657600080fd5b506108c3600480360360208110156108ad57600080fd5b8101908080359060200190929190505050612234565b6040518080602001828103825283818151815260200191508051906020019080838360005b838110156109035780820151818401526020810190506108e8565b50505050905090810190601f1680156109305780820380516001836020036101000a031916815260200191505b509250505060405180910390f35b34801561094a57600080fd5b50610a046004803603602081101561096157600080fd5b810190808035906020019064010000000081111561097e57600080fd5b82018360208201111561099057600080fd5b803590602001918460018302840111640100000000831117156109b257600080fd5b91908080601f016020809104026020016040519081016040528093929190818152602001838380828437600081840152601f19601f820116905080830192505050505050509192919290505050612304565b604051808873ffffffffffffffffffffffffffffffffffffffff1673ffffffffffffffffffffffffffffffffffffffff1681526020018773ffffffffffffffffffffffffffffffffffffffff1673ffffffffffffffffffffffffffffffffffffffff1681526020018060200180602001806020018681526020018060200185810385528a818151815260200191508051906020019080838360005b83811015610aba578082015181840152602081019050610a9f565b50505050905090810190601f168015610ae75780820380516001836020036101000a031916815260200191505b50858103845289818151815260200191508051906020019080838360005b83811015610b20578082015181840152602081019050610b05565b50505050905090810190601f168015610b4d5780820380516001836020036101000a031916815260200191505b50858103835288818151815260200191508051906020019080838360005b83811015610b86578082015181840152602081019050610b6b565b50505050905090810190601f168015610bb35780820380516001836020036101000a031916815260200191505b50858103825286818151815260200191508051906020019080838360005b83811015610bec578082015181840152602081019050610bd1565b50505050905090810190601f168015610c195780820380516001836020036101000a031916815260200191505b509b50505050505050505050505060405180910390f35b6000806001805490501415610c485760009050610dc0565b816040516020018082805190602001908083835b602083101515610c815780518252602082019150602081019050602083039250610c5c565b6001836020036101000a0380198251168184511680821785525050505050509050019150506040516020818303038152906040528051906020012060016000846040518082805190602001908083835b602083101515610cf65780518252602082019150602081019050602083039250610cd1565b6001836020036101000a038019825116818451168082178552505050505050905001915050908152602001604051809103902060060154815481101515610d3957fe5b906000526020600020016040516020018082805460018160011615610100020316600290048015610da15780601f10610d7f576101008083540402835291820191610da1565b820191906000526020600020905b815481529060010190602001808311610d8d575b5050915050604051602081830303815290604052805190602001201490505b919050565b6000600180549050905090565b6000610ddd83610c30565b1515610de857600080fd5b816000846040518082805190602001908083835b602083101515610e215780518252602082019150602081019050602083039250610dfc565b6001836020036101000a03801982511681845116808217855250505050505090500191505090815260200160405180910390206005019080519060200190610e6a929190612ae9565b50826040518082805190602001908083835b602083101515610ea15780518252602082019150602081019050602083039250610e7c565b6001836020036101000a03801982511681845116808217855250505050505090500191505060405180910390207ffdc72069bd42eb7fc977c86bbf03474de411117932a1e2e010d55f9a824a4d616000856040518082805190602001908083835b602083101515610f275780518252602082019150602081019050602083039250610f02565b6001836020036101000a038019825116818451168082178552505050505050905001915050908152602001604051809103902060000160009054906101000a900473ffffffffffffffffffffffffffffffffffffffff166000866040518082805190602001908083835b602083101515610fb65780518252602082019150602081019050602083039250610f91565b6001836020036101000a038019825116818451168082178552505050505050905001915050908152602001604051809103902060010160009054906101000a900473ffffffffffffffffffffffffffffffffffffffff166000876040518082805190602001908083835b6020831015156110455780518252602082019150602081019050602083039250611020565b6001836020036101000a0380198251168184511680821785525050505050509050019150509081526020016040518091039020600601546000886040518082805190602001908083835b6020831015156110b4578051825260208201915060208101905060208303925061108f565b6001836020036101000a03801982511681845116808217855250505050505090500191505090815260200160405180910390206002016000896040518082805190602001908083835b60208310151561112257805182526020820191506020810190506020830392506110fd565b6001836020036101000a038019825116818451168082178552505050505050905001915050908152602001604051809103902060030160008a6040518082805190602001908083835b602083101515611190578051825260208201915060208101905060208303925061116b565b6001836020036101000a038019825116818451168082178552505050505050905001915050908152602001604051809103902060040189604051808873ffffffffffffffffffffffffffffffffffffffff1673ffffffffffffffffffffffffffffffffffffffff1681526020018773ffffffffffffffffffffffffffffffffffffffff1673ffffffffffffffffffffffffffffffffffffffff168152602001868152602001806020018060200180602001806020018581038552898181546001816001161561010002031660029004815260200191508054600181600116156101000203166002900480156112c65780601f1061129b576101008083540402835291602001916112c6565b820191906000526020600020905b8154815290600101906020018083116112a957829003601f168201915b50508581038452888181546001816001161561010002031660029004815260200191508054600181600116156101000203166002900480156113495780601f1061131e57610100808354040283529160200191611349565b820191906000526020600020905b81548152906001019060200180831161132c57829003601f168201915b50508581038352878181546001816001161561010002031660029004815260200191508054600181600116156101000203166002900480156113cc5780601f106113a1576101008083540402835291602001916113cc565b820191906000526020600020905b8154815290600101906020018083116113af57829003601f168201915b5050858103825286818151815260200191508051906020019080838360005b838110156114065780820151818401526020810190506113eb565b50505050905090810190601f1680156114335780820380516001836020036101000a031916815260200191505b509b50505050505050505050505060405180910390a26001905092915050565b600061145e84610c30565b151561146957600080fd5b826000856040518082805190602001908083835b6020831015156114a2578051825260208201915060208101905060208303925061147d565b6001836020036101000a038019825116818451168082178552505050505050905001915050908152602001604051809103902060030190805190602001906114eb929190612b69565b50816000856040518082805190602001908083835b6020831015156115255780518252602082019150602081019050602083039250611500565b6001836020036101000a0380198251168184511680821785525050505050509050019150509081526020016040518091039020600401908051906020019061156e929190612b69565b50836040518082805190602001908083835b6020831015156115a55780518252602082019150602081019050602083039250611580565b6001836020036101000a03801982511681845116808217855250505050505090500191505060405180910390207ffdc72069bd42eb7fc977c86bbf03474de411117932a1e2e010d55f9a824a4d616000866040518082805190602001908083835b60208310151561162b5780518252602082019150602081019050602083039250611606565b6001836020036101000a038019825116818451168082178552505050505050905001915050908152602001604051809103902060000160009054906101000a900473ffffffffffffffffffffffffffffffffffffffff166000876040518082805190602001908083835b6020831015156116ba5780518252602082019150602081019050602083039250611695565b6001836020036101000a038019825116818451168082178552505050505050905001915050908152602001604051809103902060010160009054906101000a900473ffffffffffffffffffffffffffffffffffffffff166000886040518082805190602001908083835b6020831015156117495780518252602082019150602081019050602083039250611724565b6001836020036101000a0380198251168184511680821785525050505050509050019150509081526020016040518091039020600601546000896040518082805190602001908083835b6020831015156117b85780518252602082019150602081019050602083039250611793565b6001836020036101000a0380198251168184511680821785525050505050509050019150509081526020016040518091039020600201888860008c6040518082805190602001908083835b6020831015156118285780518252602082019150602081019050602083039250611803565b6001836020036101000a0380198251168184511680821785525050505050509050019150509081526020016040518091039020600501604051808873ffffffffffffffffffffffffffffffffffffffff1673ffffffffffffffffffffffffffffffffffffffff1681526020018773ffffffffffffffffffffffffffffffffffffffff1673ffffffffffffffffffffffffffffffffffffffff1681526020018681526020018060200180602001806020018060200185810385528981815460018160011615610100020316600290048152602001915080546001816001161561010002031660029004801561195d5780601f106119325761010080835404028352916020019161195d565b820191906000526020600020905b81548152906001019060200180831161194057829003601f168201915b5050858103845288818151815260200191508051906020019080838360005b8381101561199757808201518184015260208101905061197c565b50505050905090810190601f1680156119c45780820380516001836020036101000a031916815260200191505b50858103835287818151815260200191508051906020019080838360005b838110156119fd5780820151818401526020810190506119e2565b50505050905090810190601f168015611a2a5780820380516001836020036101000a031916815260200191505b50858103825286818154600181600116156101000203166002900481526020019150805460018160011615610100020316600290048015611aac5780601f10611a8157610100808354040283529160200191611aac565b820191906000526020600020905b815481529060010190602001808311611a8f57829003601f168201915b50509b50505050505050505050505060405180910390a2600190509392505050565b6000611ad988610c30565b15611ae357600080fd5b866000896040518082805190602001908083835b602083101515611b1c5780518252602082019150602081019050602083039250611af7565b6001836020036101000a038019825116818451168082178552505050505050905001915050908152602001604051809103902060000160006101000a81548173ffffffffffffffffffffffffffffffffffffffff021916908373ffffffffffffffffffffffffffffffffffffffff160217905550856000896040518082805190602001908083835b602083101515611bc95780518252602082019150602081019050602083039250611ba4565b6001836020036101000a038019825116818451168082178552505050505050905001915050908152602001604051809103902060010160006101000a81548173ffffffffffffffffffffffffffffffffffffffff021916908373ffffffffffffffffffffffffffffffffffffffff160217905550846000896040518082805190602001908083835b602083101515611c765780518252602082019150602081019050602083039250611c51565b6001836020036101000a03801982511681845116808217855250505050505090500191505090815260200160405180910390206002019080519060200190611cbf929190612b69565b50836000896040518082805190602001908083835b602083101515611cf95780518252602082019150602081019050602083039250611cd4565b6001836020036101000a03801982511681845116808217855250505050505090500191505090815260200160405180910390206003019080519060200190611d42929190612b69565b50826000896040518082805190602001908083835b602083101515611d7c5780518252602082019150602081019050602083039250611d57565b6001836020036101000a03801982511681845116808217855250505050505090500191505090815260200160405180910390206004019080519060200190611dc5929190612b69565b50816000896040518082805190602001908083835b602083101515611dff5780518252602082019150602081019050602083039250611dda565b6001836020036101000a03801982511681845116808217855250505050505090500191505090815260200160405180910390206005019080519060200190611e48929190612ae9565b50600180899080600181540180825580915050906001820390600052602060002001600090919290919091509080519060200190611e87929190612b69565b50036000896040518082805190602001908083835b602083101515611ec15780518252602082019150602081019050602083039250611e9c565b6001836020036101000a038019825116818451168082178552505050505050905001915050908152602001604051809103902060060181905550876040518082805190602001908083835b602083101515611f315780518252602082019150602081019050602083039250611f0c565b6001836020036101000a03801982511681845116808217855250505050505090500191505060405180910390207f697d805a8460bc9462cf9b4c60071d3e95a07723f6863b08f53a45abd0d71ffc888860008c6040518082805190602001908083835b602083101515611fb95780518252602082019150602081019050602083039250611f94565b6001836020036101000a03801982511681845116808217855250505050505090500191505090815260200160405180910390206006015489898989604051808873ffffffffffffffffffffffffffffffffffffffff1673ffffffffffffffffffffffffffffffffffffffff1681526020018773ffffffffffffffffffffffffffffffffffffffff1673ffffffffffffffffffffffffffffffffffffffff16815260200186815260200180602001806020018060200180602001858103855289818151815260200191508051906020019080838360005b838110156120aa57808201518184015260208101905061208f565b50505050905090810190601f1680156120d75780820380516001836020036101000a031916815260200191505b50858103845288818151815260200191508051906020019080838360005b838110156121105780820151818401526020810190506120f5565b50505050905090810190601f16801561213d5780820380516001836020036101000a031916815260200191505b50858103835287818151815260200191508051906020019080838360005b8381101561217657808201518184015260208101905061215b565b50505050905090810190601f1680156121a35780820380516001836020036101000a031916815260200191505b50858103825286818151815260200191508051906020019080838360005b838110156121dc5780820151818401526020810190506121c1565b50505050905090810190601f1680156122095780820380516001836020036101000a031916815260200191505b509b50505050505050505050505060405180910390a260018080549050039050979650505050505050565b606060018054905060018303111561224b57600080fd5b60018281548110151561225a57fe5b906000526020600020018054600181600116156101000203166002900480601f0160208091040260200160405190810160405280929190818152602001828054600181600116156101000203166002900480156122f85780601f106122cd576101008083540402835291602001916122f8565b820191906000526020600020905b8154815290600101906020018083116122db57829003601f168201915b50505050509050919050565b600080606080606060006060876000816040518082805190602001908083835b6020831015156123495780518252602082019150602081019050602083039250612324565b6001836020036101000a038019825116818451168082178552505050505050905001915050908152602001604051809103902060000160009054906101000a900473ffffffffffffffffffffffffffffffffffffffff1673ffffffffffffffffffffffffffffffffffffffff163373ffffffffffffffffffffffffffffffffffffffff16148061249257506000816040518082805190602001908083835b60208310151561240c57805182526020820191506020810190506020830392506123e7565b6001836020036101000a038019825116818451168082178552505050505050905001915050908152602001604051809103902060010160009054906101000a900473ffffffffffffffffffffffffffffffffffffffff1673ffffffffffffffffffffffffffffffffffffffff163373ffffffffffffffffffffffffffffffffffffffff16145b1515612506576040517f08c379a00000000000000000000000000000000000000000000000000000000081526004018080602001828103825260168152602001807f53656e646572206e6f7420617574686f72697a65642e0000000000000000000081525060200191505060405180910390fd5b61250f89610c30565b151561251a57600080fd5b6000896040518082805190602001908083835b602083101515612552578051825260208201915060208101905060208303925061252d565b6001836020036101000a038019825116818451168082178552505050505050905001915050908152602001604051809103902060000160009054906101000a900473ffffffffffffffffffffffffffffffffffffffff1660008a6040518082805190602001908083835b6020831015156125e157805182526020820191506020810190506020830392506125bc565b6001836020036101000a038019825116818451168082178552505050505050905001915050908152602001604051809103902060010160009054906101000a900473ffffffffffffffffffffffffffffffffffffffff1660008b6040518082805190602001908083835b602083101515612670578051825260208201915060208101905060208303925061264b565b6001836020036101000a038019825116818451168082178552505050505050905001915050908152602001604051809103902060020160008c6040518082805190602001908083835b6020831015156126de57805182526020820191506020810190506020830392506126b9565b6001836020036101000a038019825116818451168082178552505050505050905001915050908152602001604051809103902060030160008d6040518082805190602001908083835b60208310151561274c5780518252602082019150602081019050602083039250612727565b6001836020036101000a038019825116818451168082178552505050505050905001915050908152602001604051809103902060040160008e6040518082805190602001908083835b6020831015156127ba5780518252602082019150602081019050602083039250612795565b6001836020036101000a03801982511681845116808217855250505050505090500191505090815260200160405180910390206006015460008f6040518082805190602001908083835b6020831015156128295780518252602082019150602081019050602083039250612804565b6001836020036101000a0380198251168184511680821785525050505050509050019150509081526020016040518091039020600501848054600181600116156101000203166002900480601f0160208091040260200160405190810160405280929190818152602001828054600181600116156101000203166002900480156128f45780601f106128c9576101008083540402835291602001916128f4565b820191906000526020600020905b8154815290600101906020018083116128d757829003601f168201915b50505050509450838054600181600116156101000203166002900480601f0160208091040260200160405190810160405280929190818152602001828054600181600116156101000203166002900480156129905780601f1061296557610100808354040283529160200191612990565b820191906000526020600020905b81548152906001019060200180831161297357829003601f168201915b50505050509350828054600181600116156101000203166002900480601f016020809104026020016040519081016040528092919081815260200182805460018160011615610100020316600290048015612a2c5780601f10612a0157610100808354040283529160200191612a2c565b820191906000526020600020905b815481529060010190602001808311612a0f57829003601f168201915b50505050509250808054600181600116156101000203166002900480601f016020809104026020016040519081016040528092919081815260200182805460018160011615610100020316600290048015612ac85780601f10612a9d57610100808354040283529160200191612ac8565b820191906000526020600020905b815481529060010190602001808311612aab57829003601f168201915b50505050509050975097509750975097509750975050919395979092949650565b828054600181600116156101000203166002900490600052602060002090601f016020900481019282601f10612b2a57805160ff1916838001178555612b58565b82800160010185558215612b58579182015b82811115612b57578251825591602001919060010190612b3c565b5b509050612b659190612be9565b5090565b828054600181600116156101000203166002900490600052602060002090601f016020900481019282601f10612baa57805160ff1916838001178555612bd8565b82800160010185558215612bd8579182015b82811115612bd7578251825591602001919060010190612bbc565b5b509050612be59190612be9565b5090565b612c0b91905b80821115612c07576000816000905550600101612bef565b5090565b9056fea165627a7a723058206bab661f5c905cdd1f78d54ea92251dea6731ecd82fc2c3359aab21f41a29df00029",
  "source": "pragma solidity >=0.4.22 <0.9.0;\n\ncontract Appointment {\n    struct AppointmentInfoStruct{\n        address userAddress;\n        address clinicAddress;\n        string doctor;\n        string date;\n        string time;\n        bytes status;\n        uint index;\n    }\n\n    mapping(string => AppointmentInfoStruct) private appointmentInfoStruct;\n    string[] private appointmentIndex;\n\n    event LogNewAppointment(\n        string indexed appointmentId,\n        address userAddress,\n        address clinicAddress,\n        uint index,\n        string doctor,\n        string date,\n        string time,\n        bytes status\n    );\n    event LogUpdateAppointment(\n        string indexed appointmentId,\n        address userAddress,\n        address clinicAddress,\n        uint index,\n        string doctor,\n        string date,\n        string time,\n        bytes status);\n\n    constructor() public{}\n\n    function isAppointmentExist(string memory appointmentId) public view returns(bool isIndeed){\n        if(appointmentIndex.length == 0) return false;\n        return ((keccak256(abi.encodePacked((appointmentIndex[appointmentInfoStruct[appointmentId].index])))) == (keccak256(abi.encodePacked((appointmentId)))));\n    }\n\n    function insertAppointment(\n        string memory appointmentId,\n        address userAddress,\n        address clinicAddress,\n        string memory doctor,\n        string memory date,\n        string memory time,\n        bytes memory status\n    ) public returns(uint index){\n        if(isAppointmentExist(appointmentId)) revert();\n        appointmentInfoStruct[appointmentId].userAddress = userAddress;\n        appointmentInfoStruct[appointmentId].clinicAddress = clinicAddress;\n        appointmentInfoStruct[appointmentId].doctor = doctor;\n        appointmentInfoStruct[appointmentId].date = date;\n        appointmentInfoStruct[appointmentId].time = time;\n        appointmentInfoStruct[appointmentId].status = status;\n        appointmentInfoStruct[appointmentId].index = appointmentIndex.push(appointmentId)-1;\n\n        emit LogNewAppointment(\n            appointmentId,\n            userAddress,\n            clinicAddress,\n            appointmentInfoStruct[appointmentId].index,\n            doctor,\n            date,\n            time,\n            status\n        );\n        return appointmentIndex.length-1;\n    }\n\n    modifier onlyBy(string memory id) {\n        require(\n            msg.sender == appointmentInfoStruct[id].userAddress || msg.sender == appointmentInfoStruct[id].clinicAddress,\n            \"Sender not authorized.\"\n        );\n        _;\n    }\n\n    function getAppointment(\n        string memory appointmentId\n    )public view onlyBy(appointmentId) returns(address userAddress, address clinicAddress, string memory doctor, string memory date, string memory time, uint index, bytes memory status){\n        if(!isAppointmentExist(appointmentId)) revert();\n\n        return(\n            appointmentInfoStruct[appointmentId].userAddress,\n            appointmentInfoStruct[appointmentId].clinicAddress,\n            appointmentInfoStruct[appointmentId].doctor,\n            appointmentInfoStruct[appointmentId].date,\n            appointmentInfoStruct[appointmentId].time,\n            appointmentInfoStruct[appointmentId].index,\n            appointmentInfoStruct[appointmentId].status\n        );\n    }\n\n    function updateAppointmentStatus(\n        string memory appointmentId, bytes memory status\n    )public returns(bool success){\n        if(!isAppointmentExist(appointmentId)) revert();\n        appointmentInfoStruct[appointmentId].status = status;\n        emit LogUpdateAppointment(\n            appointmentId,\n            appointmentInfoStruct[appointmentId].userAddress,\n            appointmentInfoStruct[appointmentId].clinicAddress,\n            appointmentInfoStruct[appointmentId].index,\n            appointmentInfoStruct[appointmentId].doctor,\n            appointmentInfoStruct[appointmentId].date,\n            appointmentInfoStruct[appointmentId].time,\n            status\n        );\n        return true;\n    }\n\n    function updateAppointmentDateTime(\n        string memory appointmentId, string memory date, string memory time\n    )public returns(bool success){\n        if(!isAppointmentExist(appointmentId)) revert();\n        appointmentInfoStruct[appointmentId].date = date;\n        appointmentInfoStruct[appointmentId].time = time;\n        emit LogUpdateAppointment(\n            appointmentId,\n            appointmentInfoStruct[appointmentId].userAddress,\n            appointmentInfoStruct[appointmentId].clinicAddress,\n            appointmentInfoStruct[appointmentId].index,\n            appointmentInfoStruct[appointmentId].doctor,\n            date,\n            time,\n            appointmentInfoStruct[appointmentId].status\n        );\n        return true;\n    }\n\n    function getAppointmentCount() public view returns(uint count){\n        return appointmentIndex.length;\n    }\n\n    function getAppointmentAtIndex(uint index) public view returns(string memory appointmentId){\n        if(index-1 >appointmentIndex.length) revert();\n        return appointmentIndex[index];\n    }\n\n}\n",
  "sourcePath": "/Users/ckk/FYP/fyp_backend/contracts/Appointment.sol",
  "compiler": {
    "name": "solc",
    "version": "0.5.1+commit.c8a2cb62.Emscripten.clang"
  },
  "schemaVersion": "3.4.14",
  "updatedAt": "2023-07-20T10:22:27.741Z",
  "networkType": "ethereum",
  "devdoc": {
    "methods": {}
  },
  "userdoc": {
    "methods": {}
  }
}