{
  "contractName": "HealthRecord",
  "abi": [
    {
      "inputs": [],
      "payable": false,
      "stateMutability": "nonpayable",
      "type": "constructor"
    },
    {
      "anonymous": false,
      "inputs": [
        {
          "indexed": true,
          "name": "userAddress",
          "type": "address"
        },
        {
          "indexed": false,
          "name": "clinicAddress",
          "type": "address"
        },
        {
          "indexed": false,
          "name": "appointment",
          "type": "string"
        },
        {
          "indexed": false,
          "name": "doctor",
          "type": "string"
        },
        {
          "indexed": false,
          "name": "datetime",
          "type": "string"
        },
        {
          "indexed": false,
          "name": "record",
          "type": "string"
        },
        {
          "indexed": false,
          "name": "remarks",
          "type": "string"
        }
      ],
      "name": "LogNewHealthRecord",
      "type": "event"
    },
    {
      "anonymous": false,
      "inputs": [
        {
          "indexed": true,
          "name": "userAddress",
          "type": "address"
        },
        {
          "indexed": false,
          "name": "clinicAddress",
          "type": "address"
        },
        {
          "indexed": false,
          "name": "date",
          "type": "string"
        },
        {
          "indexed": false,
          "name": "time",
          "type": "string"
        },
        {
          "indexed": false,
          "name": "status",
          "type": "bytes"
        }
      ],
      "name": "LogAllowMedicalProvider",
      "type": "event"
    },
    {
      "constant": false,
      "inputs": [
        {
          "name": "userAddress",
          "type": "address"
        },
        {
          "name": "clinicAddress",
          "type": "address"
        },
        {
          "name": "appointmentId",
          "type": "string"
        },
        {
          "name": "doctor",
          "type": "string"
        },
        {
          "name": "datetime",
          "type": "string"
        },
        {
          "name": "record",
          "type": "string"
        },
        {
          "name": "remarks",
          "type": "string"
        }
      ],
      "name": "insertHealthRecord",
      "outputs": [
        {
          "name": "index",
          "type": "uint256"
        }
      ],
      "payable": false,
      "stateMutability": "nonpayable",
      "type": "function"
    },
    {
      "constant": false,
      "inputs": [
        {
          "name": "userAddress",
          "type": "address"
        },
        {
          "name": "clinicAddress",
          "type": "address"
        },
        {
          "name": "date",
          "type": "string"
        },
        {
          "name": "time",
          "type": "string"
        },
        {
          "name": "status",
          "type": "bytes"
        }
      ],
      "name": "insertHealthProvider",
      "outputs": [
        {
          "name": "isSuccess",
          "type": "bool"
        }
      ],
      "payable": false,
      "stateMutability": "nonpayable",
      "type": "function"
    },
    {
      "constant": false,
      "inputs": [
        {
          "name": "userAddress",
          "type": "address"
        },
        {
          "name": "clinicAddress",
          "type": "address"
        },
        {
          "name": "date",
          "type": "string"
        },
        {
          "name": "time",
          "type": "string"
        },
        {
          "name": "status",
          "type": "bytes"
        }
      ],
      "name": "removeHealthProvider",
      "outputs": [
        {
          "name": "isSuccess",
          "type": "bool"
        }
      ],
      "payable": false,
      "stateMutability": "nonpayable",
      "type": "function"
    },
    {
      "constant": true,
      "inputs": [
        {
          "name": "userAddress",
          "type": "address"
        },
        {
          "name": "clinicAddress",
          "type": "address"
        }
      ],
      "name": "verifyHealthProvider",
      "outputs": [
        {
          "name": "isTrue",
          "type": "bool"
        }
      ],
      "payable": false,
      "stateMutability": "view",
      "type": "function"
    }
  ],
  "bytecode": "0x608060405234801561001057600080fd5b50611feb806100206000396000f3fe60806040526004361061005c576000357c0100000000000000000000000000000000000000000000000000000000900480634310590b146100615780636e7ccea2146102af5780637c9bf86814610338578063f3a7562714610586575b600080fd5b34801561006d57600080fd5b50610295600480360360a081101561008457600080fd5b81019080803573ffffffffffffffffffffffffffffffffffffffff169060200190929190803573ffffffffffffffffffffffffffffffffffffffff169060200190929190803590602001906401000000008111156100e157600080fd5b8201836020820111156100f357600080fd5b8035906020019184600183028401116401000000008311171561011557600080fd5b91908080601f016020809104026020016040519081016040528093929190818152602001838380828437600081840152601f19601f8201169050808301925050505050505091929192908035906020019064010000000081111561017857600080fd5b82018360208201111561018a57600080fd5b803590602001918460018302840111640100000000831117156101ac57600080fd5b91908080601f016020809104026020016040519081016040528093929190818152602001838380828437600081840152601f19601f8201169050808301925050505050505091929192908035906020019064010000000081111561020f57600080fd5b82018360208201111561022157600080fd5b8035906020019184600183028401116401000000008311171561024357600080fd5b91908080601f016020809104026020016040519081016040528093929190818152602001838380828437600081840152601f19601f8201169050808301925050505050505091929192905050506108fe565b604051808215151515815260200191505060405180910390f35b3480156102bb57600080fd5b5061031e600480360360408110156102d257600080fd5b81019080803573ffffffffffffffffffffffffffffffffffffffff169060200190929190803573ffffffffffffffffffffffffffffffffffffffff16906020019092919050505061103f565b604051808215151515815260200191505060405180910390f35b34801561034457600080fd5b5061056c600480360360a081101561035b57600080fd5b81019080803573ffffffffffffffffffffffffffffffffffffffff169060200190929190803573ffffffffffffffffffffffffffffffffffffffff169060200190929190803590602001906401000000008111156103b857600080fd5b8201836020820111156103ca57600080fd5b803590602001918460018302840111640100000000831117156103ec57600080fd5b91908080601f016020809104026020016040519081016040528093929190818152602001838380828437600081840152601f19601f8201169050808301925050505050505091929192908035906020019064010000000081111561044f57600080fd5b82018360208201111561046157600080fd5b8035906020019184600183028401116401000000008311171561048357600080fd5b91908080601f016020809104026020016040519081016040528093929190818152602001838380828437600081840152601f19601f820116905080830192505050505050509192919290803590602001906401000000008111156104e657600080fd5b8201836020820111156104f857600080fd5b8035906020019184600183028401116401000000008311171561051a57600080fd5b91908080601f016020809104026020016040519081016040528093929190818152602001838380828437600081840152601f19601f82011690508083019250505050505050919291929050505061126b565b604051808215151515815260200191505060405180910390f35b34801561059257600080fd5b506108e8600480360360e08110156105a957600080fd5b81019080803573ffffffffffffffffffffffffffffffffffffffff169060200190929190803573ffffffffffffffffffffffffffffffffffffffff1690602001909291908035906020019064010000000081111561060657600080fd5b82018360208201111561061857600080fd5b8035906020019184600183028401116401000000008311171561063a57600080fd5b91908080601f016020809104026020016040519081016040528093929190818152602001838380828437600081840152601f19601f8201169050808301925050505050505091929192908035906020019064010000000081111561069d57600080fd5b8201836020820111156106af57600080fd5b803590602001918460018302840111640100000000831117156106d157600080fd5b91908080601f016020809104026020016040519081016040528093929190818152602001838380828437600081840152601f19601f8201169050808301925050505050505091929192908035906020019064010000000081111561073457600080fd5b82018360208201111561074657600080fd5b8035906020019184600183028401116401000000008311171561076857600080fd5b91908080601f016020809104026020016040519081016040528093929190818152602001838380828437600081840152601f19601f820116905080830192505050505050509192919290803590602001906401000000008111156107cb57600080fd5b8201836020820111156107dd57600080fd5b803590602001918460018302840111640100000000831117156107ff57600080fd5b91908080601f016020809104026020016040519081016040528093929190818152602001838380828437600081840152601f19601f8201169050808301925050505050505091929192908035906020019064010000000081111561086257600080fd5b82018360208201111561087457600080fd5b8035906020019184600183028401116401000000008311171561089657600080fd5b91908080601f016020809104026020016040519081016040528093929190818152602001838380828437600081840152601f19601f820116905080830192505050505050509192919290505050611712565b6040518082815260200191505060405180910390f35b6000806000905060008090505b600160008973ffffffffffffffffffffffffffffffffffffffff1673ffffffffffffffffffffffffffffffffffffffff16815260200190815260200160002080549050811015610d24578673ffffffffffffffffffffffffffffffffffffffff16600160008a73ffffffffffffffffffffffffffffffffffffffff1673ffffffffffffffffffffffffffffffffffffffff168152602001908152602001600020828154811015156109b857fe5b906000526020600020906004020160000160009054906101000a900473ffffffffffffffffffffffffffffffffffffffff1673ffffffffffffffffffffffffffffffffffffffff161415610d1757600191508380519060200120600160008a73ffffffffffffffffffffffffffffffffffffffff1673ffffffffffffffffffffffffffffffffffffffff16815260200190815260200160002082815481101515610a5e57fe5b90600052602060002090600402016003016040518082805460018160011615610100020316600290048015610aca5780601f10610aa8576101008083540402835291820191610aca565b820191906000526020600020905b815481529060010190602001808311610ab6575b50509150506040518091039020141515610d125783600160008a73ffffffffffffffffffffffffffffffffffffffff1673ffffffffffffffffffffffffffffffffffffffff16815260200190815260200160002082815481101515610b2b57fe5b90600052602060002090600402016003019080519060200190610b4f929190611e1a565b508773ffffffffffffffffffffffffffffffffffffffff167f6be3e005fe596b0b78ec16c295217b203332da6af0a387c87ee250a58116b9bc88888888604051808573ffffffffffffffffffffffffffffffffffffffff1673ffffffffffffffffffffffffffffffffffffffff168152602001806020018060200180602001848103845287818151815260200191508051906020019080838360005b83811015610c06578082015181840152602081019050610beb565b50505050905090810190601f168015610c335780820380516001836020036101000a031916815260200191505b50848103835286818151815260200191508051906020019080838360005b83811015610c6c578082015181840152602081019050610c51565b50505050905090810190601f168015610c995780820380516001836020036101000a031916815260200191505b50848103825285818151815260200191508051906020019080838360005b83811015610cd2578082015181840152602081019050610cb7565b50505050905090810190601f168015610cff5780820380516001836020036101000a031916815260200191505b5097505050505050505060405180910390a25b610d24565b808060010191505061090b565b5080151561103157600160008873ffffffffffffffffffffffffffffffffffffffff1673ffffffffffffffffffffffffffffffffffffffff1681526020019081526020016000206080604051908101604052808873ffffffffffffffffffffffffffffffffffffffff168152602001878152602001868152602001858152509080600181540180825580915050906001820390600052602060002090600402016000909192909190915060008201518160000160006101000a81548173ffffffffffffffffffffffffffffffffffffffff021916908373ffffffffffffffffffffffffffffffffffffffff1602179055506020820151816001019080519060200190610e31929190611e9a565b506040820151816002019080519060200190610e4e929190611e9a565b506060820151816003019080519060200190610e6b929190611f1a565b505050508673ffffffffffffffffffffffffffffffffffffffff167f6be3e005fe596b0b78ec16c295217b203332da6af0a387c87ee250a58116b9bc87878787604051808573ffffffffffffffffffffffffffffffffffffffff1673ffffffffffffffffffffffffffffffffffffffff168152602001806020018060200180602001848103845287818151815260200191508051906020019080838360005b83811015610f25578082015181840152602081019050610f0a565b50505050905090810190601f168015610f525780820380516001836020036101000a031916815260200191505b50848103835286818151815260200191508051906020019080838360005b83811015610f8b578082015181840152602081019050610f70565b50505050905090810190601f168015610fb85780820380516001836020036101000a031916815260200191505b50848103825285818151815260200191508051906020019080838360005b83811015610ff1578082015181840152602081019050610fd6565b50505050905090810190601f16801561101e5780820380516001836020036101000a031916815260200191505b5097505050505050505060405180910390a25b600191505095945050505050565b6000806000905060008090505b600160008673ffffffffffffffffffffffffffffffffffffffff1673ffffffffffffffffffffffffffffffffffffffff16815260200190815260200160002080549050811015611260578373ffffffffffffffffffffffffffffffffffffffff16600160008773ffffffffffffffffffffffffffffffffffffffff1673ffffffffffffffffffffffffffffffffffffffff168152602001908152602001600020828154811015156110f957fe5b906000526020600020906004020160000160009054906101000a900473ffffffffffffffffffffffffffffffffffffffff1673ffffffffffffffffffffffffffffffffffffffff1614156112535760405180807f307834650000000000000000000000000000000000000000000000000000000081525060040190506040518091039020600160008773ffffffffffffffffffffffffffffffffffffffff1673ffffffffffffffffffffffffffffffffffffffff168152602001908152602001600020828154811015156111c957fe5b906000526020600020906004020160030160405180828054600181600116156101000203166002900480156112355780601f10611213576101008083540402835291820191611235565b820191906000526020600020905b815481529060010190602001808311611221575b505091505060405180910390201415156112525760019150611260565b5b808060010191505061104c565b508091505092915050565b6000806000905060008090505b600160008973ffffffffffffffffffffffffffffffffffffffff1673ffffffffffffffffffffffffffffffffffffffff168152602001908152602001600020805490508110156113f7578673ffffffffffffffffffffffffffffffffffffffff16600160008a73ffffffffffffffffffffffffffffffffffffffff1673ffffffffffffffffffffffffffffffffffffffff1681526020019081526020016000208281548110151561132557fe5b906000526020600020906004020160000160009054906101000a900473ffffffffffffffffffffffffffffffffffffffff1673ffffffffffffffffffffffffffffffffffffffff1614156113ea576001915083600160008a73ffffffffffffffffffffffffffffffffffffffff1673ffffffffffffffffffffffffffffffffffffffff168152602001908152602001600020828154811015156113c457fe5b906000526020600020906004020160030190805190602001906113e8929190611e1a565b505b8080600101915050611278565b5080151561154357600160008873ffffffffffffffffffffffffffffffffffffffff1673ffffffffffffffffffffffffffffffffffffffff1681526020019081526020016000206080604051908101604052808873ffffffffffffffffffffffffffffffffffffffff168152602001878152602001868152602001858152509080600181540180825580915050906001820390600052602060002090600402016000909192909190915060008201518160000160006101000a81548173ffffffffffffffffffffffffffffffffffffffff021916908373ffffffffffffffffffffffffffffffffffffffff1602179055506020820151816001019080519060200190611504929190611e9a565b506040820151816002019080519060200190611521929190611e9a565b50606082015181600301908051906020019061153e929190611f1a565b505050505b8673ffffffffffffffffffffffffffffffffffffffff167f6be3e005fe596b0b78ec16c295217b203332da6af0a387c87ee250a58116b9bc87878787604051808573ffffffffffffffffffffffffffffffffffffffff1673ffffffffffffffffffffffffffffffffffffffff168152602001806020018060200180602001848103845287818151815260200191508051906020019080838360005b838110156115f95780820151818401526020810190506115de565b50505050905090810190601f1680156116265780820380516001836020036101000a031916815260200191505b50848103835286818151815260200191508051906020019080838360005b8381101561165f578082015181840152602081019050611644565b50505050905090810190601f16801561168c5780820380516001836020036101000a031916815260200191505b50848103825285818151815260200191508051906020019080838360005b838110156116c55780820151818401526020810190506116aa565b50505050905090810190601f1680156116f25780820380516001836020036101000a031916815260200191505b5097505050505050505060405180910390a2600191505095945050505050565b60008787600080905060008090505b600160008573ffffffffffffffffffffffffffffffffffffffff1673ffffffffffffffffffffffffffffffffffffffff16815260200190815260200160002080549050811015611831578273ffffffffffffffffffffffffffffffffffffffff16600160008673ffffffffffffffffffffffffffffffffffffffff1673ffffffffffffffffffffffffffffffffffffffff168152602001908152602001600020828154811015156117ce57fe5b906000526020600020906004020160000160009054906101000a900473ffffffffffffffffffffffffffffffffffffffff1673ffffffffffffffffffffffffffffffffffffffff16141561182457809150611831565b8080600101915050611721565b50600160008473ffffffffffffffffffffffffffffffffffffffff1673ffffffffffffffffffffffffffffffffffffffff1681526020019081526020016000208181548110151561187e57fe5b906000526020600020906004020160000160009054906101000a900473ffffffffffffffffffffffffffffffffffffffff1673ffffffffffffffffffffffffffffffffffffffff163373ffffffffffffffffffffffffffffffffffffffff16141515611952576040517f08c379a00000000000000000000000000000000000000000000000000000000081526004018080602001828103825260168152602001807f53656e646572206e6f7420617574686f72697a65642e0000000000000000000081525060200191505060405180910390fd5b61195c8b8b61103f565b151561196757600080fd5b6000808c73ffffffffffffffffffffffffffffffffffffffff1673ffffffffffffffffffffffffffffffffffffffff16815260200190815260200160002060e0604051908101604052808c73ffffffffffffffffffffffffffffffffffffffff1681526020018b81526020018a8152602001898152602001888152602001878152602001600160028f90806001815401808255809150509060018203906000526020600020016000909192909190916101000a81548173ffffffffffffffffffffffffffffffffffffffff021916908373ffffffffffffffffffffffffffffffffffffffff160217905550038152509080600181540180825580915050906001820390600052602060002090600702016000909192909190915060008201518160000160006101000a81548173ffffffffffffffffffffffffffffffffffffffff021916908373ffffffffffffffffffffffffffffffffffffffff1602179055506020820151816001019080519060200190611ae4929190611e9a565b506040820151816002019080519060200190611b01929190611e9a565b506060820151816003019080519060200190611b1e929190611e9a565b506080820151816004019080519060200190611b3b929190611e9a565b5060a0820151816005019080519060200190611b58929190611e9a565b5060c082015181600601555050508a73ffffffffffffffffffffffffffffffffffffffff167fe511f954f38f4df62b9b59779215d6539efbeafb4d764dae2d91acd3b8c6f20c8b8b8b8b8b8b604051808773ffffffffffffffffffffffffffffffffffffffff1673ffffffffffffffffffffffffffffffffffffffff168152602001806020018060200180602001806020018060200186810386528b818151815260200191508051906020019080838360005b83811015611c26578082015181840152602081019050611c0b565b50505050905090810190601f168015611c535780820380516001836020036101000a031916815260200191505b5086810385528a818151815260200191508051906020019080838360005b83811015611c8c578082015181840152602081019050611c71565b50505050905090810190601f168015611cb95780820380516001836020036101000a031916815260200191505b50868103845289818151815260200191508051906020019080838360005b83811015611cf2578082015181840152602081019050611cd7565b50505050905090810190601f168015611d1f5780820380516001836020036101000a031916815260200191505b50868103835288818151815260200191508051906020019080838360005b83811015611d58578082015181840152602081019050611d3d565b50505050905090810190601f168015611d855780820380516001836020036101000a031916815260200191505b50868103825287818151815260200191508051906020019080838360005b83811015611dbe578082015181840152602081019050611da3565b50505050905090810190601f168015611deb5780820380516001836020036101000a031916815260200191505b509b50505050505050505050505060405180910390a26001600280549050039350505050979650505050505050565b828054600181600116156101000203166002900490600052602060002090601f016020900481019282601f10611e5b57805160ff1916838001178555611e89565b82800160010185558215611e89579182015b82811115611e88578251825591602001919060010190611e6d565b5b509050611e969190611f9a565b5090565b828054600181600116156101000203166002900490600052602060002090601f016020900481019282601f10611edb57805160ff1916838001178555611f09565b82800160010185558215611f09579182015b82811115611f08578251825591602001919060010190611eed565b5b509050611f169190611f9a565b5090565b828054600181600116156101000203166002900490600052602060002090601f016020900481019282601f10611f5b57805160ff1916838001178555611f89565b82800160010185558215611f89579182015b82811115611f88578251825591602001919060010190611f6d565b5b509050611f969190611f9a565b5090565b611fbc91905b80821115611fb8576000816000905550600101611fa0565b5090565b9056fea165627a7a72305820a89d79381d8d565bc985c3399acc56e3192008fe99d2fee2baef35042fec0a0e0029",
  "source": "// SPDX-License-Identifier: UNLICENSED\npragma solidity >=0.4.22 <0.9.0;\n\ncontract HealthRecord {\n    struct HealthRecordStruct{\n        address clinicAddress;\n        string appointmentId;\n        string doctor;\n        string datetime;\n        string record;\n        string remarks;\n        uint index;\n    }\n    struct MedicalProviderStruct{\n        address clinicAddress;\n        string date;\n        string time;\n        bytes status;\n    }\n\n    constructor() public{}\n\n    mapping(address => HealthRecordStruct[]) private healthRecordInfoStruct;\n    mapping(address => MedicalProviderStruct[]) private allowMedicalProviderList;\n    address[] private healthRecordIndex;\n\n    event LogNewHealthRecord(\n        address indexed userAddress,\n        address clinicAddress,\n        string appointment,\n        string doctor,\n        string datetime,\n        string record,\n        string remarks\n    );\n    event LogAllowMedicalProvider(\n        address indexed userAddress,\n        address clinicAddress,\n        string date,\n        string time,\n        bytes status\n    );\n\n    modifier onlyBy(address userAddress, address clinicAddress) {\n        uint indexOf = 0;\n        for(uint i=0; i<allowMedicalProviderList[userAddress].length; i++){\n            if(allowMedicalProviderList[userAddress][i].clinicAddress == clinicAddress){\n                indexOf = i;\n                break;\n            }\n        }\n        require(\n            msg.sender == allowMedicalProviderList[userAddress][indexOf].clinicAddress,\n            \"Sender not authorized.\"\n        );\n        _;\n    }\n\n    function insertHealthRecord(\n        address userAddress,\n        address clinicAddress,\n        string memory appointmentId,\n        string memory doctor,\n        string memory datetime,\n        string memory record,\n        string memory remarks\n    ) public onlyBy(userAddress, clinicAddress) returns(uint index){\n        if(!verifyHealthProvider(userAddress, clinicAddress)) revert();\n\n        healthRecordInfoStruct[userAddress].push(\n            HealthRecordStruct(\n                clinicAddress,\n                appointmentId,\n                doctor,\n                datetime,\n                record,\n                remarks,\n                healthRecordIndex.push(userAddress)-1\n            )\n        );\n\n        emit LogNewHealthRecord(\n            userAddress,\n            clinicAddress,\n            appointmentId,\n            doctor,\n            datetime,\n            record,\n            remarks\n        );\n        return healthRecordIndex.length-1;\n    }\n\n    function insertHealthProvider(address userAddress, address clinicAddress, string memory date, string memory time, bytes memory status) public returns(bool isSuccess){\n        bool alreadyInserted = false;\n        for(uint i=0; i<allowMedicalProviderList[userAddress].length; i++){\n            if(allowMedicalProviderList[userAddress][i].clinicAddress == clinicAddress){\n                alreadyInserted = true;\n                if((keccak256(allowMedicalProviderList[userAddress][i].status)) != (keccak256(status))){\n                    allowMedicalProviderList[userAddress][i].status = status;\n                    emit LogAllowMedicalProvider(\n                        userAddress,\n                        clinicAddress,\n                        date,\n                        time,\n                        status\n                    );\n                }\n                break;\n            }\n        }\n        if(!alreadyInserted){\n            allowMedicalProviderList[userAddress].push(MedicalProviderStruct(clinicAddress, date, time, status));\n            emit LogAllowMedicalProvider(\n                userAddress,\n                clinicAddress,\n                date,\n                time,\n                status\n            );\n        }\n        return true;\n    }\n\n    function removeHealthProvider(address userAddress, address clinicAddress, string memory date, string memory time, bytes memory status) public returns(bool isSuccess){\n        bool alreadyInserted = false;\n        for(uint i=0; i<allowMedicalProviderList[userAddress].length; i++){\n            if(allowMedicalProviderList[userAddress][i].clinicAddress == clinicAddress){\n                alreadyInserted = true;\n                allowMedicalProviderList[userAddress][i].status = status;\n            }\n        }\n        if(!alreadyInserted){\n            allowMedicalProviderList[userAddress].push(MedicalProviderStruct(clinicAddress, date, time, status));\n        }\n        emit LogAllowMedicalProvider(\n            userAddress,\n            clinicAddress,\n            date,\n            time,\n            status\n        );\n        return true;\n    }\n\n    function verifyHealthProvider(address userAddress, address clinicAddress) public view returns(bool isTrue){\n        bool isExist = false;\n        for(uint i=0; i<allowMedicalProviderList[userAddress].length; i++){\n            if(allowMedicalProviderList[userAddress][i].clinicAddress == clinicAddress){\n                if((keccak256(allowMedicalProviderList[userAddress][i].status) != keccak256(\"0x4e\"))){ // \"N\"\n                    isExist = true;\n                    break;\n                }\n            }\n        }\n        return isExist;\n    }\n}\n",
  "sourcePath": "/Users/ckk/FYP/fyp_backend/contracts/HealthRecord.sol",
  "compiler": {
    "name": "solc",
    "version": "0.5.1+commit.c8a2cb62.Emscripten.clang"
  },
  "schemaVersion": "3.4.14",
  "updatedAt": "2023-07-20T10:22:27.735Z",
  "networkType": "ethereum",
  "devdoc": {
    "methods": {}
  },
  "userdoc": {
    "methods": {}
  }
}